{
  "contractName": "SimpleStoragePermissioned",
  "abi": [
    {
      "inputs": [],
      "payable": false,
      "stateMutability": "nonpayable",
      "type": "constructor"
    },
    {
      "constant": false,
      "inputs": [
        {
          "internalType": "string",
          "name": "_value",
          "type": "string"
        }
      ],
      "name": "put",
      "outputs": [
        {
          "internalType": "uint256",
          "name": "_registryIndex",
          "type": "uint256"
        }
      ],
      "payable": false,
      "stateMutability": "nonpayable",
      "type": "function"
    },
    {
      "constant": true,
      "inputs": [
        {
          "internalType": "uint256",
          "name": "_registryIndex",
          "type": "uint256"
        }
      ],
      "name": "get",
      "outputs": [
        {
          "internalType": "string",
          "name": "_value",
          "type": "string"
        }
      ],
      "payable": false,
      "stateMutability": "view",
      "type": "function"
    }
  ],
  "bytecode": "0x608060405234801561001057600080fd5b506100556040518060400160405280600c81526020017f48656c6c6f20576f726c6421000000000000000000000000000000000000000081525061005b60201b60201c565b5061019b565b600081600080600254815260200190815260200160002090805190602001906100859291906100f6565b503360016000600254815260200190815260200160002060006101000a81548173ffffffffffffffffffffffffffffffffffffffff021916908373ffffffffffffffffffffffffffffffffffffffff1602179055506002549050600260008154809291906001019190505550919050565b828054600181600116156101000203166002900490600052602060002090601f016020900481019282601f1061013757805160ff1916838001178555610165565b82800160010185558215610165579182015b82811115610164578251825591602001919060010190610149565b5b5090506101729190610176565b5090565b61019891905b8082111561019457600081600090555060010161017c565b5090565b90565b6104c3806101aa6000396000f3fe608060405234801561001057600080fd5b50600436106100365760003560e01c80634c21eb071461003b5780639507d39a1461010a575b600080fd5b6100f46004803603602081101561005157600080fd5b810190808035906020019064010000000081111561006e57600080fd5b82018360208201111561008057600080fd5b803590602001918460018302840111640100000000831117156100a257600080fd5b91908080601f016020809104026020016040519081016040528093929190818152602001838380828437600081840152601f19601f8201169050808301925050505050505091929192905050506101b1565b6040518082815260200191505060405180910390f35b6101366004803603602081101561012057600080fd5b810190808035906020019092919050505061024c565b6040518080602001828103825283818151815260200191508051906020019080838360005b8381101561017657808201518184015260208101905061015b565b50505050905090810190601f1680156101a35780820380516001836020036101000a031916815260200191505b509250505060405180910390f35b600081600080600254815260200190815260200160002090805190602001906101db9291906103b9565b503360016000600254815260200190815260200160002060006101000a81548173ffffffffffffffffffffffffffffffffffffffff021916908373ffffffffffffffffffffffffffffffffffffffff1602179055506002549050600260008154809291906001019190505550919050565b6060816001600082815260200190815260200160002060009054906101000a900473ffffffffffffffffffffffffffffffffffffffff1673ffffffffffffffffffffffffffffffffffffffff163373ffffffffffffffffffffffffffffffffffffffff1614610306576040517f08c379a000000000000000000000000000000000000000000000000000000000815260040180806020018281038252603081526020018061045f6030913960400191505060405180910390fd5b6000808481526020019081526020016000208054600181600116156101000203166002900480601f0160208091040260200160405190810160405280929190818152602001828054600181600116156101000203166002900480156103ac5780601f10610381576101008083540402835291602001916103ac565b820191906000526020600020905b81548152906001019060200180831161038f57829003601f168201915b5050505050915050919050565b828054600181600116156101000203166002900490600052602060002090601f016020900481019282601f106103fa57805160ff1916838001178555610428565b82800160010185558215610428579182015b8281111561042757825182559160200191906001019061040c565b5b5090506104359190610439565b5090565b61045b91905b8082111561045757600081600090555060010161043f565b5090565b9056fe41646472657373206973206e6f74207065726d697474656420746f2061636365737320746869732073746f7261676521a265627a7a72315820cb10eb79cd70dfeae796b7a9bb44c2bbff597e455caa27518e587ca57bde23a364736f6c63430005100032",
  "source": "pragma solidity >= 0.4.0 < 0.7.0;\r\n\r\ncontract SimpleStoragePermissioned {\r\n\r\n    mapping(uint => string) store;\r\n    mapping(uint => address) storageRegistry;\r\n    uint registryIndex;\r\n\r\n    modifier isOwner(uint _registryIndex) {\r\n        require(msg.sender == storageRegistry[_registryIndex], \"Address is not permitted to access this storage!\");\r\n        _;\r\n    }\r\n\r\n    constructor() public {\r\n        put(\"Hello World!\");\r\n    }\r\n\r\n    function put(string memory _value) public returns (uint _registryIndex) {\r\n        store[registryIndex] = _value;\r\n        storageRegistry[registryIndex] = msg.sender;\r\n        _registryIndex = registryIndex;\r\n        registryIndex++;\r\n    }\r\n\r\n    function get(uint _registryIndex) public view isOwner(_registryIndex) returns (string memory _value) {\r\n        return(store[_registryIndex]);\r\n    }\r\n}",
  "sourcePath": "C:/Users/ThinkBox/HelloTruffle/contracts/SimpleStorage.sol",
  "compiler": {
    "name": "solc",
    "version": "0.5.16+commit.9c3226ce.Emscripten.clang"
  },
  "schemaVersion": "3.0.21",
  "updatedAt": "2020-01-22T17:55:16.053Z",
  "networkType": "ethereum",
  "devdoc": {
    "methods": {}
  },
  "userdoc": {
    "methods": {}
  }
}